{
  "contractName": "Keep4rPresale",
  "abi": [
    {
      "inputs": [
        {
          "internalType": "address",
          "name": "_kp4r",
          "type": "address"
        }
      ],
      "stateMutability": "nonpayable",
      "type": "constructor"
    },
    {
      "anonymous": false,
      "inputs": [
        {
          "indexed": true,
          "internalType": "address",
          "name": "buyer",
          "type": "address"
        },
        {
          "indexed": false,
          "internalType": "uint256",
          "name": "amount",
          "type": "uint256"
        },
        {
          "indexed": false,
          "internalType": "uint256",
          "name": "price",
          "type": "uint256"
        }
      ],
      "name": "Purchase",
      "type": "event"
    },
    {
      "stateMutability": "payable",
      "type": "fallback",
      "payable": true
    },
    {
      "inputs": [
        {
          "internalType": "address",
          "name": "",
          "type": "address"
        }
      ],
      "name": "balance",
      "outputs": [
        {
          "internalType": "uint256",
          "name": "",
          "type": "uint256"
        }
      ],
      "stateMutability": "view",
      "type": "function",
      "constant": true
    },
    {
      "inputs": [],
      "name": "bonusPercentage",
      "outputs": [
        {
          "internalType": "uint256",
          "name": "",
          "type": "uint256"
        }
      ],
      "stateMutability": "view",
      "type": "function",
      "constant": true
    },
    {
      "inputs": [],
      "name": "bonusTrigger",
      "outputs": [
        {
          "internalType": "uint256",
          "name": "",
          "type": "uint256"
        }
      ],
      "stateMutability": "view",
      "type": "function",
      "constant": true
    },
    {
      "inputs": [],
      "name": "endsOn",
      "outputs": [
        {
          "internalType": "uint256",
          "name": "",
          "type": "uint256"
        }
      ],
      "stateMutability": "view",
      "type": "function",
      "constant": true
    },
    {
      "inputs": [],
      "name": "manager",
      "outputs": [
        {
          "internalType": "address",
          "name": "",
          "type": "address"
        }
      ],
      "stateMutability": "view",
      "type": "function",
      "constant": true
    },
    {
      "inputs": [],
      "name": "managerPending",
      "outputs": [
        {
          "internalType": "address",
          "name": "",
          "type": "address"
        }
      ],
      "stateMutability": "view",
      "type": "function",
      "constant": true
    },
    {
      "inputs": [],
      "name": "managerWithdrawn",
      "outputs": [
        {
          "internalType": "uint256",
          "name": "",
          "type": "uint256"
        }
      ],
      "stateMutability": "view",
      "type": "function",
      "constant": true
    },
    {
      "inputs": [],
      "name": "minimumOrder",
      "outputs": [
        {
          "internalType": "uint256",
          "name": "",
          "type": "uint256"
        }
      ],
      "stateMutability": "view",
      "type": "function",
      "constant": true
    },
    {
      "inputs": [],
      "name": "overseer",
      "outputs": [
        {
          "internalType": "address",
          "name": "",
          "type": "address"
        }
      ],
      "stateMutability": "view",
      "type": "function",
      "constant": true
    },
    {
      "inputs": [],
      "name": "overseerPending",
      "outputs": [
        {
          "internalType": "address",
          "name": "",
          "type": "address"
        }
      ],
      "stateMutability": "view",
      "type": "function",
      "constant": true
    },
    {
      "inputs": [],
      "name": "overseerWithdrawn",
      "outputs": [
        {
          "internalType": "uint256",
          "name": "",
          "type": "uint256"
        }
      ],
      "stateMutability": "view",
      "type": "function",
      "constant": true
    },
    {
      "inputs": [],
      "name": "started",
      "outputs": [
        {
          "internalType": "bool",
          "name": "",
          "type": "bool"
        }
      ],
      "stateMutability": "view",
      "type": "function",
      "constant": true
    },
    {
      "inputs": [],
      "name": "totalForSale",
      "outputs": [
        {
          "internalType": "uint256",
          "name": "",
          "type": "uint256"
        }
      ],
      "stateMutability": "view",
      "type": "function",
      "constant": true
    },
    {
      "inputs": [],
      "name": "totalSettled",
      "outputs": [
        {
          "internalType": "uint256",
          "name": "",
          "type": "uint256"
        }
      ],
      "stateMutability": "view",
      "type": "function",
      "constant": true
    },
    {
      "inputs": [],
      "name": "totalSold",
      "outputs": [
        {
          "internalType": "uint256",
          "name": "",
          "type": "uint256"
        }
      ],
      "stateMutability": "view",
      "type": "function",
      "constant": true
    },
    {
      "inputs": [],
      "name": "unitPrice",
      "outputs": [
        {
          "internalType": "uint256",
          "name": "",
          "type": "uint256"
        }
      ],
      "stateMutability": "view",
      "type": "function",
      "constant": true
    },
    {
      "inputs": [],
      "name": "unlocksOn",
      "outputs": [
        {
          "internalType": "uint256",
          "name": "",
          "type": "uint256"
        }
      ],
      "stateMutability": "view",
      "type": "function",
      "constant": true
    },
    {
      "inputs": [],
      "name": "weiRaised",
      "outputs": [
        {
          "internalType": "uint256",
          "name": "",
          "type": "uint256"
        }
      ],
      "stateMutability": "view",
      "type": "function",
      "constant": true
    },
    {
      "stateMutability": "payable",
      "type": "receive",
      "payable": true
    },
    {
      "inputs": [
        {
          "internalType": "address",
          "name": "_new",
          "type": "address"
        }
      ],
      "name": "transferRole",
      "outputs": [],
      "stateMutability": "nonpayable",
      "type": "function"
    },
    {
      "inputs": [],
      "name": "acceptRole",
      "outputs": [],
      "stateMutability": "nonpayable",
      "type": "function"
    },
    {
      "inputs": [
        {
          "internalType": "uint256",
          "name": "_price",
          "type": "uint256"
        }
      ],
      "name": "managerSetPrice",
      "outputs": [],
      "stateMutability": "nonpayable",
      "type": "function"
    },
    {
      "inputs": [
        {
          "internalType": "uint256",
          "name": "_minimum",
          "type": "uint256"
        }
      ],
      "name": "managerSetMinimum",
      "outputs": [],
      "stateMutability": "nonpayable",
      "type": "function"
    },
    {
      "inputs": [
        {
          "internalType": "uint256",
          "name": "_trigger",
          "type": "uint256"
        },
        {
          "internalType": "uint256",
          "name": "_percentage",
          "type": "uint256"
        }
      ],
      "name": "managerSetBonus",
      "outputs": [],
      "stateMutability": "nonpayable",
      "type": "function"
    },
    {
      "inputs": [
        {
          "internalType": "uint256",
          "name": "_amount",
          "type": "uint256"
        }
      ],
      "name": "managerDeposit",
      "outputs": [],
      "stateMutability": "nonpayable",
      "type": "function"
    },
    {
      "inputs": [
        {
          "internalType": "uint256",
          "name": "_amount",
          "type": "uint256"
        }
      ],
      "name": "managerReclaim",
      "outputs": [],
      "stateMutability": "nonpayable",
      "type": "function"
    },
    {
      "inputs": [
        {
          "internalType": "uint256",
          "name": "_amount",
          "type": "uint256"
        }
      ],
      "name": "managerWithdraw",
      "outputs": [],
      "stateMutability": "nonpayable",
      "type": "function"
    },
    {
      "inputs": [
        {
          "internalType": "uint256",
          "name": "_amount",
          "type": "uint256"
        }
      ],
      "name": "overseerWithdraw",
      "outputs": [],
      "stateMutability": "nonpayable",
      "type": "function"
    },
    {
      "inputs": [
        {
          "internalType": "uint256",
          "name": "amount",
          "type": "uint256"
        }
      ],
      "name": "managerClose",
      "outputs": [],
      "stateMutability": "nonpayable",
      "type": "function"
    },
    {
      "inputs": [],
      "name": "managerForceUnlock",
      "outputs": [],
      "stateMutability": "nonpayable",
      "type": "function"
    },
    {
      "inputs": [
        {
          "internalType": "uint256",
          "name": "_unlocksOn",
          "type": "uint256"
        },
        {
          "internalType": "uint256",
          "name": "_endsOn",
          "type": "uint256"
        },
        {
          "internalType": "uint256",
          "name": "_price",
          "type": "uint256"
        },
        {
          "internalType": "uint256",
          "name": "_minimumOrder",
          "type": "uint256"
        }
      ],
      "name": "start",
      "outputs": [],
      "stateMutability": "nonpayable",
      "type": "function"
    },
    {
      "inputs": [],
      "name": "remaining",
      "outputs": [
        {
          "internalType": "uint256",
          "name": "",
          "type": "uint256"
        }
      ],
      "stateMutability": "view",
      "type": "function",
      "constant": true
    },
    {
      "inputs": [],
      "name": "purchase",
      "outputs": [],
      "stateMutability": "payable",
      "type": "function",
      "payable": true
    },
    {
      "inputs": [
        {
          "internalType": "uint256",
          "name": "_value",
          "type": "uint256"
        }
      ],
      "name": "calculateAmountPurchased",
      "outputs": [
        {
          "internalType": "uint256",
          "name": "",
          "type": "uint256"
        }
      ],
      "stateMutability": "view",
      "type": "function",
      "constant": true
    },
    {
      "inputs": [],
      "name": "claim",
      "outputs": [],
      "stateMutability": "nonpayable",
      "type": "function"
    }
  ],
  "bytecode": "0x60806040526706f05b59d3b20000600855620186a060095534801561002357600080fd5b50604051612c7c380380612c7c8339818101604052602081101561004657600080fd5b810190808051906020019092919050505033600260006101000a81548173ffffffffffffffffffffffffffffffffffffffff021916908373ffffffffffffffffffffffffffffffffffffffff16021790555033600560006101000a81548173ffffffffffffffffffffffffffffffffffffffff021916908373ffffffffffffffffffffffffffffffffffffffff16021790555080600060016101000a81548173ffffffffffffffffffffffffffffffffffffffff021916908373ffffffffffffffffffffffffffffffffffffffff16021790555080600160006101000a81548173ffffffffffffffffffffffffffffffffffffffff021916908373ffffffffffffffffffffffffffffffffffffffff16021790555050612b118061016b6000396000f3fe6080604052600436106101fd5760003560e01c8063813d6c9a1161010d578063cd4911aa116100a0578063e73faa2d1161006f578063e73faa2d14610842578063e9c7097e1461086d578063ea54ce55146108c4578063eace4c91146108ef578063ed466d7f1461091a5761020c565b8063cd4911aa1461072c578063e0e2c1e614610767578063e3d670d7146107a2578063e680ed8e146108075761020c565b8063a0167bb8116100dc578063a0167bb814610674578063ac29f1131461069f578063afb4b05d146106b6578063ca22eb3d146106f15761020c565b8063813d6c9a146105b85780638eaefd3a146105e35780639106d7ba1461060e57806396a3e0b6146106395761020c565b8063481c6a75116101905780635401b3d21161015f5780635401b3d2146104e857806355234ec01461051357806364edfbf01461053e578063707a4e961461054857806380e5c5e2146105a15761020c565b8063481c6a75146103d25780634ba25656146104295780634cce63bd146104805780634e71d92d146104d15761020c565b80631f2698ab116101cc5780631f2698ab146102d25780633764228d146103015780633967ce0b146103585780634042b66f146103a75761020c565b806301d4576b146102165780630618872914610241578063073ac10d1461027c5780631982d067146102a75761020c565b3661020c5761020a61095f565b005b61021461095f565b005b34801561022257600080fd5b5061022b610d4e565b6040518082815260200191505060405180910390f35b34801561024d57600080fd5b5061027a6004803603602081101561026457600080fd5b8101908080359060200190929190505050610d54565b005b34801561028857600080fd5b50610291610f31565b6040518082815260200191505060405180910390f35b3480156102b357600080fd5b506102bc610f37565b6040518082815260200191505060405180910390f35b3480156102de57600080fd5b506102e7610f3d565b604051808215151515815260200191505060405180910390f35b34801561030d57600080fd5b50610316610f4f565b604051808273ffffffffffffffffffffffffffffffffffffffff1673ffffffffffffffffffffffffffffffffffffffff16815260200191505060405180910390f35b34801561036457600080fd5b506103916004803603602081101561037b57600080fd5b8101908080359060200190929190505050610f75565b6040518082815260200191505060405180910390f35b3480156103b357600080fd5b506103bc6110f3565b6040518082815260200191505060405180910390f35b3480156103de57600080fd5b506103e76110f9565b604051808273ffffffffffffffffffffffffffffffffffffffff1673ffffffffffffffffffffffffffffffffffffffff16815260200191505060405180910390f35b34801561043557600080fd5b5061043e61111f565b604051808273ffffffffffffffffffffffffffffffffffffffff1673ffffffffffffffffffffffffffffffffffffffff16815260200191505060405180910390f35b34801561048c57600080fd5b506104cf600480360360208110156104a357600080fd5b81019080803573ffffffffffffffffffffffffffffffffffffffff169060200190929190505050611145565b005b3480156104dd57600080fd5b506104e661139c565b005b3480156104f457600080fd5b506104fd611648565b6040518082815260200191505060405180910390f35b34801561051f57600080fd5b5061052861164e565b6040518082815260200191505060405180910390f35b61054661095f565b005b34801561055457600080fd5b5061059f6004803603608081101561056b57600080fd5b810190808035906020019092919080359060200190929190803590602001909291908035906020019092919050505061172e565b005b3480156105ad57600080fd5b506105b6611892565b005b3480156105c457600080fd5b506105cd611b93565b6040518082815260200191505060405180910390f35b3480156105ef57600080fd5b506105f8611b99565b6040518082815260200191505060405180910390f35b34801561061a57600080fd5b50610623611b9f565b6040518082815260200191505060405180910390f35b34801561064557600080fd5b506106726004803603602081101561065c57600080fd5b8101908080359060200190929190505050611ba5565b005b34801561068057600080fd5b50610689611d45565b6040518082815260200191505060405180910390f35b3480156106ab57600080fd5b506106b4611d4b565b005b3480156106c257600080fd5b506106ef600480360360208110156106d957600080fd5b8101908080359060200190929190505050611dfd565b005b3480156106fd57600080fd5b5061072a6004803603602081101561071457600080fd5b810190808035906020019092919050505061210c565b005b34801561073857600080fd5b506107656004803603602081101561074f57600080fd5b81019080803590602001909291905050506122ac565b005b34801561077357600080fd5b506107a06004803603602081101561078a57600080fd5b810190808035906020019092919050505061235c565b005b3480156107ae57600080fd5b506107f1600480360360208110156107c557600080fd5b81019080803573ffffffffffffffffffffffffffffffffffffffff16906020019092919050505061240c565b6040518082815260200191505060405180910390f35b34801561081357600080fd5b506108406004803603602081101561082a57600080fd5b8101908080359060200190929190505050612424565b005b34801561084e57600080fd5b50610857612597565b6040518082815260200191505060405180910390f35b34801561087957600080fd5b5061088261259d565b604051808273ffffffffffffffffffffffffffffffffffffffff1673ffffffffffffffffffffffffffffffffffffffff16815260200191505060405180910390f35b3480156108d057600080fd5b506108d96125c3565b6040518082815260200191505060405180910390f35b3480156108fb57600080fd5b506109046125c9565b6040518082815260200191505060405180910390f35b34801561092657600080fd5b5061095d6004803603604081101561093d57600080fd5b8101908080359060200190929190803590602001909291905050506125cf565b005b6000809054906101000a900460ff166109e0576040517f08c379a000000000000000000000000000000000000000000000000000000000815260040180806020018281038252601e8152602001807f746f6b656e2073616c6520686173206e6f74207965742073746172746564000081525060200191505060405180910390fd5b6009543411610a57576040517f08c379a000000000000000000000000000000000000000000000000000000000815260040180806020018281038252601d8152602001807f616d6f756e742070757263686173656420697320746f6f20736d616c6c00000081525060200191505060405180910390fd5b600b544210610ace576040517f08c379a00000000000000000000000000000000000000000000000000000000081526004018080602001828103825260118152602001807f70726573616c652068617320656e64656400000000000000000000000000000081525060200191505060405180910390fd5b6000610ad934610f75565b9050600060019054906101000a900473ffffffffffffffffffffffffffffffffffffffff1673ffffffffffffffffffffffffffffffffffffffff166370a08231306040518263ffffffff1660e01b8152600401808273ffffffffffffffffffffffffffffffffffffffff1673ffffffffffffffffffffffffffffffffffffffff16815260200191505060206040518083038186803b158015610b7a57600080fd5b505afa158015610b8e573d6000803e3d6000fd5b505050506040513d6020811015610ba457600080fd5b8101908080519060200190929190505050811115610c2a576040517f08c379a00000000000000000000000000000000000000000000000000000000081526004018080602001828103825260148152602001807f6e6f7420656e6f756768204b503452206c65667400000000000000000000000081525060200191505060405180910390fd5b610c7c81601260003373ffffffffffffffffffffffffffffffffffffffff1673ffffffffffffffffffffffffffffffffffffffff1681526020019081526020016000205461268790919063ffffffff16565b601260003373ffffffffffffffffffffffffffffffffffffffff1673ffffffffffffffffffffffffffffffffffffffff16815260200190815260200160002081905550610cd481600f5461268790919063ffffffff16565b600f81905550610cef3460115461268790919063ffffffff16565b6011819055503373ffffffffffffffffffffffffffffffffffffffff167f12cb4648cf3058b17ceeb33e579f8b0bc269fe0843f3900b8e24b6c54871703c8234604051808381526020018281526020019250505060405180910390a250565b60095481565b600260009054906101000a900473ffffffffffffffffffffffffffffffffffffffff1673ffffffffffffffffffffffffffffffffffffffff163373ffffffffffffffffffffffffffffffffffffffff1614610dfa576040517f08c379a00000000000000000000000000000000000000000000000000000000081526004018080602001828103825260288152602001806129b06028913960400191505060405180910390fd5b600060019054906101000a900473ffffffffffffffffffffffffffffffffffffffff1673ffffffffffffffffffffffffffffffffffffffff166323b872dd3330846040518463ffffffff1660e01b8152600401808473ffffffffffffffffffffffffffffffffffffffff1673ffffffffffffffffffffffffffffffffffffffff1681526020018373ffffffffffffffffffffffffffffffffffffffff1673ffffffffffffffffffffffffffffffffffffffff1681526020018281526020019350505050602060405180830381600087803b158015610ed757600080fd5b505af1158015610eeb573d6000803e3d6000fd5b505050506040513d6020811015610f0157600080fd5b810190808051906020019092919050505050610f2881600e5461268790919063ffffffff16565b600e8190555050565b60075481565b600c5481565b6000809054906101000a900460ff1681565b600360009054906101000a900473ffffffffffffffffffffffffffffffffffffffff1681565b600080610fa7670de0b6b3a7640000610f996008548661270f90919063ffffffff16565b61275990919063ffffffff16565b9050600c548311156110ea576000610fde6103e8610fd0600d548561275990919063ffffffff16565b61270f90919063ffffffff16565b9050600060019054906101000a900473ffffffffffffffffffffffffffffffffffffffff1673ffffffffffffffffffffffffffffffffffffffff166370a08231306040518263ffffffff1660e01b8152600401808273ffffffffffffffffffffffffffffffffffffffff1673ffffffffffffffffffffffffffffffffffffffff16815260200191505060206040518083038186803b15801561107f57600080fd5b505afa158015611093573d6000803e3d6000fd5b505050506040513d60208110156110a957600080fd5b81019080805190602001909291905050506110cd828461268790919063ffffffff16565b116110e8576110e5818361268790919063ffffffff16565b91505b505b80915050919050565b60115481565b600260009054906101000a900473ffffffffffffffffffffffffffffffffffffffff1681565b600560009054906101000a900473ffffffffffffffffffffffffffffffffffffffff1681565b600260009054906101000a900473ffffffffffffffffffffffffffffffffffffffff1673ffffffffffffffffffffffffffffffffffffffff163373ffffffffffffffffffffffffffffffffffffffff1614806111ee5750600560009054906101000a900473ffffffffffffffffffffffffffffffffffffffff1673ffffffffffffffffffffffffffffffffffffffff163373ffffffffffffffffffffffffffffffffffffffff16145b611260576040517f08c379a00000000000000000000000000000000000000000000000000000000081526004018080602001828103825260148152602001807f216d616e61676572206f72206f7665727365657200000000000000000000000081525060200191505060405180910390fd5b600260009054906101000a900473ffffffffffffffffffffffffffffffffffffffff1673ffffffffffffffffffffffffffffffffffffffff163373ffffffffffffffffffffffffffffffffffffffff1614156112fc5780600360006101000a81548173ffffffffffffffffffffffffffffffffffffffff021916908373ffffffffffffffffffffffffffffffffffffffff160217905550611399565b600560009054906101000a900473ffffffffffffffffffffffffffffffffffffffff1673ffffffffffffffffffffffffffffffffffffffff163373ffffffffffffffffffffffffffffffffffffffff1614156113985780600660006101000a81548173ffffffffffffffffffffffffffffffffffffffff021916908373ffffffffffffffffffffffffffffffffffffffff160217905550611399565b5b50565b600a544211611413576040517f08c379a000000000000000000000000000000000000000000000000000000000815260040180806020018281038252601c8152602001807f70726573616c6520686173206e6f7420756e6c6f636b6564207965740000000081525060200191505060405180910390fd5b6000601260003373ffffffffffffffffffffffffffffffffffffffff1673ffffffffffffffffffffffffffffffffffffffff16815260200190815260200160002054116114c8576040517f08c379a00000000000000000000000000000000000000000000000000000000081526004018080602001828103825260138152602001807f6e6f7468696e6720746f2077697468647261770000000000000000000000000081525060200191505060405180910390fd5b600060019054906101000a900473ffffffffffffffffffffffffffffffffffffffff1673ffffffffffffffffffffffffffffffffffffffff1663a9059cbb33601260003373ffffffffffffffffffffffffffffffffffffffff1673ffffffffffffffffffffffffffffffffffffffff168152602001908152602001600020546040518363ffffffff1660e01b8152600401808373ffffffffffffffffffffffffffffffffffffffff1673ffffffffffffffffffffffffffffffffffffffff16815260200182815260200192505050602060405180830381600087803b1580156115b057600080fd5b505af11580156115c4573d6000803e3d6000fd5b505050506040513d60208110156115da57600080fd5b810190808051906020019092919050505050611640601260003373ffffffffffffffffffffffffffffffffffffffff1673ffffffffffffffffffffffffffffffffffffffff1681526020019081526020016000205460105461268790919063ffffffff16565b601081905550565b600b5481565b60008060019054906101000a900473ffffffffffffffffffffffffffffffffffffffff1673ffffffffffffffffffffffffffffffffffffffff166370a08231306040518263ffffffff1660e01b8152600401808273ffffffffffffffffffffffffffffffffffffffff1673ffffffffffffffffffffffffffffffffffffffff16815260200191505060206040518083038186803b1580156116ee57600080fd5b505afa158015611702573d6000803e3d6000fd5b505050506040513d602081101561171857600080fd5b8101908080519060200190929190505050905090565b600260009054906101000a900473ffffffffffffffffffffffffffffffffffffffff1673ffffffffffffffffffffffffffffffffffffffff163373ffffffffffffffffffffffffffffffffffffffff16146117d4576040517f08c379a00000000000000000000000000000000000000000000000000000000081526004018080602001828103825260288152602001806129b06028913960400191505060405180910390fd5b6000809054906101000a900460ff1615611856576040517f08c379a000000000000000000000000000000000000000000000000000000000815260040180806020018281038252600f8152602001807f616c72656164792073746172746564000000000000000000000000000000000081525060200191505060405180910390fd5b83600a8190555082600b81905550816008819055508060098190555060016000806101000a81548160ff02191690831515021790555050505050565b600360009054906101000a900473ffffffffffffffffffffffffffffffffffffffff1673ffffffffffffffffffffffffffffffffffffffff163373ffffffffffffffffffffffffffffffffffffffff16148061193b5750600660009054906101000a900473ffffffffffffffffffffffffffffffffffffffff1673ffffffffffffffffffffffffffffffffffffffff163373ffffffffffffffffffffffffffffffffffffffff16145b611990576040517f08c379a0000000000000000000000000000000000000000000000000000000008152600401808060200182810382526022815260200180612a1f6022913960400191505060405180910390fd5b600360009054906101000a900473ffffffffffffffffffffffffffffffffffffffff1673ffffffffffffffffffffffffffffffffffffffff163373ffffffffffffffffffffffffffffffffffffffff161415611a9057600360009054906101000a900473ffffffffffffffffffffffffffffffffffffffff16600260006101000a81548173ffffffffffffffffffffffffffffffffffffffff021916908373ffffffffffffffffffffffffffffffffffffffff1602179055506000600360006101000a81548173ffffffffffffffffffffffffffffffffffffffff021916908373ffffffffffffffffffffffffffffffffffffffff160217905550611b91565b600660009054906101000a900473ffffffffffffffffffffffffffffffffffffffff1673ffffffffffffffffffffffffffffffffffffffff163373ffffffffffffffffffffffffffffffffffffffff161415611b9057600660009054906101000a900473ffffffffffffffffffffffffffffffffffffffff16600560006101000a81548173ffffffffffffffffffffffffffffffffffffffff021916908373ffffffffffffffffffffffffffffffffffffffff1602179055506000600360006101000a81548173ffffffffffffffffffffffffffffffffffffffff021916908373ffffffffffffffffffffffffffffffffffffffff160217905550611b91565b5b565b600d5481565b600e5481565b600f5481565b600260009054906101000a900473ffffffffffffffffffffffffffffffffffffffff1673ffffffffffffffffffffffffffffffffffffffff163373ffffffffffffffffffffffffffffffffffffffff1614611c4b576040517f08c379a00000000000000000000000000000000000000000000000000000000081526004018080602001828103825260288152602001806129b06028913960400191505060405180910390fd5b611c746064611c66605060115461275990919063ffffffff16565b61270f90919063ffffffff16565b611c898260045461268790919063ffffffff16565b1115611ce0576040517f08c379a000000000000000000000000000000000000000000000000000000000815260040180806020018281038252602c815260200180612ab0602c913960400191505060405180910390fd5b611cf58160045461268790919063ffffffff16565b6004819055503373ffffffffffffffffffffffffffffffffffffffff166108fc829081150290604051600060405180830381858888f19350505050158015611d41573d6000803e3d6000fd5b5050565b600a5481565b600260009054906101000a900473ffffffffffffffffffffffffffffffffffffffff1673ffffffffffffffffffffffffffffffffffffffff163373ffffffffffffffffffffffffffffffffffffffff1614611df1576040517f08c379a00000000000000000000000000000000000000000000000000000000081526004018080602001828103825260288152602001806129b06028913960400191505060405180910390fd5b60014203600a81905550565b600260009054906101000a900473ffffffffffffffffffffffffffffffffffffffff1673ffffffffffffffffffffffffffffffffffffffff163373ffffffffffffffffffffffffffffffffffffffff1614611ea3576040517f08c379a00000000000000000000000000000000000000000000000000000000081526004018080602001828103825260288152602001806129b06028913960400191505060405180910390fd5b6000611ebc601054600f546127df90919063ffffffff16565b90506000611fac82600060019054906101000a900473ffffffffffffffffffffffffffffffffffffffff1673ffffffffffffffffffffffffffffffffffffffff166370a08231306040518263ffffffff1660e01b8152600401808273ffffffffffffffffffffffffffffffffffffffff1673ffffffffffffffffffffffffffffffffffffffff16815260200191505060206040518083038186803b158015611f6357600080fd5b505afa158015611f77573d6000803e3d6000fd5b505050506040513d6020811015611f8d57600080fd5b81019080805190602001909291905050506127df90919063ffffffff16565b905080831115612007576040517f08c379a0000000000000000000000000000000000000000000000000000000008152600401808060200182810382526023815260200180612a646023913960400191505060405180910390fd5b600060019054906101000a900473ffffffffffffffffffffffffffffffffffffffff1673ffffffffffffffffffffffffffffffffffffffff1663a9059cbb33856040518363ffffffff1660e01b8152600401808373ffffffffffffffffffffffffffffffffffffffff1673ffffffffffffffffffffffffffffffffffffffff16815260200182815260200192505050602060405180830381600087803b1580156120b057600080fd5b505af11580156120c4573d6000803e3d6000fd5b505050506040513d60208110156120da57600080fd5b81019080805190602001909291905050505061210183600e546127df90919063ffffffff16565b600e81905550505050565b600560009054906101000a900473ffffffffffffffffffffffffffffffffffffffff1673ffffffffffffffffffffffffffffffffffffffff163373ffffffffffffffffffffffffffffffffffffffff16146121b2576040517f08c379a0000000000000000000000000000000000000000000000000000000008152600401808060200182810382526029815260200180612a876029913960400191505060405180910390fd5b6121db60646121cd601460115461275990919063ffffffff16565b61270f90919063ffffffff16565b6121f08260075461268790919063ffffffff16565b1115612247576040517f08c379a0000000000000000000000000000000000000000000000000000000008152600401808060200182810382526023815260200180612a416023913960400191505060405180910390fd5b61225c8160075461268790919063ffffffff16565b6007819055503373ffffffffffffffffffffffffffffffffffffffff166108fc829081150290604051600060405180830381858888f193505050501580156122a8573d6000803e3d6000fd5b5050565b600260009054906101000a900473ffffffffffffffffffffffffffffffffffffffff1673ffffffffffffffffffffffffffffffffffffffff163373ffffffffffffffffffffffffffffffffffffffff1614612352576040517f08c379a00000000000000000000000000000000000000000000000000000000081526004018080602001828103825260288152602001806129b06028913960400191505060405180910390fd5b8060088190555050565b600260009054906101000a900473ffffffffffffffffffffffffffffffffffffffff1673ffffffffffffffffffffffffffffffffffffffff163373ffffffffffffffffffffffffffffffffffffffff1614612402576040517f08c379a00000000000000000000000000000000000000000000000000000000081526004018080602001828103825260288152602001806129b06028913960400191505060405180910390fd5b8060098190555050565b60126020528060005260406000206000915090505481565b600260009054906101000a900473ffffffffffffffffffffffffffffffffffffffff1673ffffffffffffffffffffffffffffffffffffffff163373ffffffffffffffffffffffffffffffffffffffff16146124ca576040517f08c379a00000000000000000000000000000000000000000000000000000000081526004018080602001828103825260288152602001806129b06028913960400191505060405180910390fd5b6124f660026124e86301e13380600b5461268790919063ffffffff16565b61275990919063ffffffff16565b421161254d576040517f08c379a00000000000000000000000000000000000000000000000000000000081526004018080602001828103825260268152602001806129d86026913960400191505060405180910390fd5b3373ffffffffffffffffffffffffffffffffffffffff166108fc829081150290604051600060405180830381858888f19350505050158015612593573d6000803e3d6000fd5b5050565b60085481565b600660009054906101000a900473ffffffffffffffffffffffffffffffffffffffff1681565b60045481565b60105481565b600260009054906101000a900473ffffffffffffffffffffffffffffffffffffffff1673ffffffffffffffffffffffffffffffffffffffff163373ffffffffffffffffffffffffffffffffffffffff1614612675576040517f08c379a00000000000000000000000000000000000000000000000000000000081526004018080602001828103825260288152602001806129b06028913960400191505060405180910390fd5b81600c8190555080600d819055505050565b600080828401905083811015612705576040517f08c379a000000000000000000000000000000000000000000000000000000000815260040180806020018281038252601b8152602001807f536166654d6174683a206164646974696f6e206f766572666c6f77000000000081525060200191505060405180910390fd5b8091505092915050565b600061275183836040518060400160405280601a81526020017f536166654d6174683a206469766973696f6e206279207a65726f000000000000815250612829565b905092915050565b60008083141561276c57600090506127d9565b600082840290508284828161277d57fe5b04146127d4576040517f08c379a00000000000000000000000000000000000000000000000000000000081526004018080602001828103825260218152602001806129fe6021913960400191505060405180910390fd5b809150505b92915050565b600061282183836040518060400160405280601e81526020017f536166654d6174683a207375627472616374696f6e206f766572666c6f7700008152506128ef565b905092915050565b600080831182906128d5576040517f08c379a00000000000000000000000000000000000000000000000000000000081526004018080602001828103825283818151815260200191508051906020019080838360005b8381101561289a57808201518184015260208101905061287f565b50505050905090810190601f1680156128c75780820380516001836020036101000a031916815260200191505b509250505060405180910390fd5b5060008385816128e157fe5b049050809150509392505050565b600083831115829061299c576040517f08c379a00000000000000000000000000000000000000000000000000000000081526004018080602001828103825283818151815260200191508051906020019080838360005b83811015612961578082015181840152602081019050612946565b50505050905090810190601f16801561298e5780820380516001836020036101000a031916815260200191505b509250505060405180910390fd5b506000838503905080915050939250505056fe4f6e6c7920746865206d616e616765722063616e2063616c6c20746869732066756e6374696f6e2e6d757374207761697420756e74696c2036206d6f6e746873207061737420656e642064617465536166654d6174683a206d756c7469706c69636174696f6e206f766572666c6f77216d616e6167657250656e64696e67206f72206f7665727365657250656e64696e6763616e6e6f74207769746864726177206d6f7265207468616e206f766572736565725363616e6e6f7420776974686472617720616c726561647920736f6c6420746f6b656e734f6e6c7920746865206f766572736565722063616e2063616c6c20746869732066756e6374696f6e2e63616e6e6f74207769746864726177206d6f7265207468616e20746865206d616e6167657273207368617265a2646970667358221220e52871aaa81bf49dbeab3b6217b34e69c3716ec5faf8604ae0c61ce4f2dcd43d64736f6c63430006060033",
  "immutableReferences": {},
  "source": "pragma solidity 0.6.6;\n\ninterface IERC20 {\n    function totalSupply() external view returns (uint);\n    function balanceOf(address account) external view returns (uint);\n    function transfer(address recipient, uint amount) external returns (bool);\n    function allowance(address owner, address spender) external view returns (uint);\n    function approve(address spender, uint amount) external returns (bool);\n    function transferFrom(address sender, address recipient, uint amount) external returns (bool);\n    event Transfer(address indexed from, address indexed to, uint value);\n    event Approval(address indexed owner, address indexed spender, uint value);\n}\n\nlibrary SafeMath {\n    function add(uint a, uint b) internal pure returns (uint) {\n        uint c = a + b;\n        require(c >= a, \"SafeMath: addition overflow\");\n\n        return c;\n    }\n    function sub(uint a, uint b) internal pure returns (uint) {\n        return sub(a, b, \"SafeMath: subtraction overflow\");\n    }\n    function sub(uint a, uint b, string memory errorMessage) internal pure returns (uint) {\n        require(b <= a, errorMessage);\n        uint c = a - b;\n\n        return c;\n    }\n    function mul(uint a, uint b) internal pure returns (uint) {\n        if (a == 0) {\n            return 0;\n        }\n\n        uint c = a * b;\n        require(c / a == b, \"SafeMath: multiplication overflow\");\n\n        return c;\n    }\n    function div(uint a, uint b) internal pure returns (uint) {\n        return div(a, b, \"SafeMath: division by zero\");\n    }\n    function div(uint a, uint b, string memory errorMessage) internal pure returns (uint) {\n        // Solidity only automatically asserts when dividing by 0\n        require(b > 0, errorMessage);\n        uint c = a / b;\n\n        return c;\n    }\n}\n\ncontract Keep4rPresale {\n    using SafeMath for uint256;\n\n    // cannot purchase until started\n    bool public started;\n\n    IERC20 KP4R;\n    address kp4rAddress;\n\n    address public manager;\n    address public managerPending;\n    uint256 constant managerS = 80;\n    uint256 public managerWithdrawn;\n    address public overseer;\n    address public overseerPending;\n    uint256 constant overseerS = 20;\n    uint256 public overseerWithdrawn;\n\n    uint256 public unitPrice = 1e18/2;\n    uint256 public minimumOrder = 100000;\n\n    /** @notice the date when purchased KP4R can be claimed */\n    uint256 public unlocksOn;\n\n    /** @notice the date when KP4R can no longer be purchased from the contract */\n    uint256 public endsOn;\n\n    /** @notice percentage bonus actived upon purchasing more than the trigger\n    * value. */\n    uint256 public bonusTrigger;\n    uint256 public bonusPercentage;\n\n    // Stats:\n    uint256 public totalForSale;\n    uint256 public totalSold;\n    uint256 public totalSettled;\n    uint256 public weiRaised;\n\n    mapping(address => uint256) public balance;\n\n    event Purchase (address indexed buyer, uint256 amount, uint256 price);\n\n    constructor(address _kp4r) public {\n        manager = msg.sender;\n        overseer = msg.sender;\n        KP4R = IERC20(_kp4r);\n        kp4rAddress = _kp4r;\n    }\n\n    modifier onlyManager {\n        require( msg.sender == manager, \"Only the manager can call this function.\" );\n        _;\n    }\n\n    modifier onlyOverseer {\n        require( msg.sender == overseer, \"Only the overseer can call this function.\");\n        _;\n    }\n\n    function transferRole(address _new) public {\n        require(msg.sender == manager || msg.sender == overseer, \"!manager or overseer\");\n        if (msg.sender == manager) { managerPending = _new; return; }\n        if (msg.sender == overseer) { overseerPending = _new; return; }\n    }\n\n    function acceptRole() public {\n        require(msg.sender == managerPending || msg.sender == overseerPending, \"!managerPending or overseerPending\");\n        if (msg.sender == managerPending) { manager = managerPending; managerPending = address(0); return; }\n        if (msg.sender == overseerPending) { overseer = overseerPending; managerPending = address(0); return; }\n    }\n\n    function managerSetPrice(uint256 _price) public onlyManager {\n        unitPrice = _price;\n    }\n\n    function managerSetMinimum(uint256 _minimum) public onlyManager {\n        minimumOrder = _minimum;\n    }\n\n    function managerSetBonus(uint256 _trigger, uint256 _percentage) public onlyManager {\n        bonusTrigger = _trigger;\n        bonusPercentage = _percentage;\n    }\n\n    function managerDeposit(uint256 _amount) public onlyManager {\n        KP4R.transferFrom(msg.sender, address(this), _amount);\n        totalForSale = totalForSale.add(_amount);\n    }\n\n    /** @notice manager can reclaim unsold tokens */\n    function managerReclaim(uint256 _amount) public onlyManager {\n        // calculate the amount of tokens that haven not been sold\n        // and settled and are thus reclaimable:\n        uint256 unreclaimable = totalSold.sub(totalSettled);\n        uint256 reclaimable = KP4R.balanceOf(address(this)).sub(unreclaimable);\n        require(_amount <= reclaimable, \"cannot withdraw already sold tokens\");\n\n        // transfer the tokens to the manager\n        KP4R.transfer(msg.sender, _amount);\n        totalForSale = totalForSale.sub(_amount);\n    }\n\n    function managerWithdraw(uint256 _amount) public onlyManager {\n        require(managerWithdrawn.add(_amount) <= weiRaised.mul(managerS).div(100), \"cannot withdraw more than the managers share\");\n        managerWithdrawn = managerWithdrawn.add(_amount);\n        msg.sender.transfer(_amount);\n    }\n\n    function overseerWithdraw(uint _amount) public onlyOverseer {\n        require(overseerWithdrawn.add(_amount) <= weiRaised.mul(overseerS).div(100), \"cannot withdraw more than overseerS\");\n        overseerWithdrawn = overseerWithdrawn.add(_amount);\n        msg.sender.transfer(_amount);\n    }\n\n    function managerClose(uint256 amount) public onlyManager {\n        require(block.timestamp > endsOn.add(31536000).mul(2), \"must wait until 6 months past end date\");\n        msg.sender.transfer(amount);\n    }\n\n    function managerForceUnlock() public onlyManager {\n        unlocksOn = block.timestamp-1;\n    }\n\n    function start(uint256 _unlocksOn, uint256 _endsOn, uint256 _price, uint256 _minimumOrder) public onlyManager {\n        require(!started, \"already started\");\n        unlocksOn = _unlocksOn;\n        endsOn = _endsOn;\n        unitPrice = _price;\n        minimumOrder = _minimumOrder;\n        started = true;\n    }\n\n    /** @notice The amount of KP4R remaining */\n    function remaining() public view returns (uint256) {\n        return KP4R.balanceOf(address(this));\n    }\n\n    /** @notice purchase KP4R at the current unit price */\n    function purchase() public payable {\n        require(started, \"token sale has not yet started\");\n        require(msg.value > minimumOrder, \"amount purchased is too small\");\n        require(block.timestamp < endsOn, \"presale has ended\");\n\n        // calculate the amount of KP4R purchasable\n        uint256 _kp4r = calculateAmountPurchased(msg.value);\n        require(_kp4r <= KP4R.balanceOf(address(this)), \"not enough KP4R left\");\n\n        // update the users balance\n        balance[msg.sender] = balance[msg.sender].add(_kp4r);\n        totalSold = totalSold.add(_kp4r);\n        weiRaised = weiRaised.add(msg.value);\n\n        emit Purchase(msg.sender, _kp4r, msg.value);\n    }\n\n    /** @notice calculates the amount purchasedfor a given amount of eth */\n    function calculateAmountPurchased(uint256 _value) public view returns (uint256) {\n        uint256 _kp4r = _value.div(unitPrice).mul(1e18);\n        if (_value > bonusTrigger) {\n            uint256 _bonus = _kp4r.mul(bonusPercentage).div(1000);\n            if (_kp4r.add(_bonus) <= KP4R.balanceOf(address(this))) {\n                _kp4r = _kp4r.add(_bonus);\n            }\n        }\n        return _kp4r;\n    }\n\n    /** @notice claim you eth */\n    function claim() public {\n        require(block.timestamp > unlocksOn, \"presale has not unlocked yet\");\n        require(balance[msg.sender] > 0, \"nothing to withdraw\");\n        KP4R.transfer(msg.sender, balance[msg.sender]);\n        totalSettled = totalSettled.add(balance[msg.sender]);\n    }\n\n    // fallbacks to allow users to send to the contract to purchase KP4R\n    receive() external payable { purchase(); }\n    fallback() external payable { purchase(); }\n}",
  "sourcePath": "/Users/kass/projects/work/kp4r/contracts/Keep4rPresale.sol",
  "compiler": {
    "name": "solc",
    "version": "0.6.6+commit.6c089d02.Emscripten.clang"
  },
  "schemaVersion": "3.2.5",
  "updatedAt": "2020-10-29T15:32:39.694Z",
  "networkType": "ethereum",
  "devdoc": {
    "methods": {}
  },
  "userdoc": {
    "methods": {
      "calculateAmountPurchased(uint256)": {
        "notice": "calculates the amount purchasedfor a given amount of eth "
      },
      "claim()": {
        "notice": "claim you eth "
      },
      "managerReclaim(uint256)": {
        "notice": "manager can reclaim unsold tokens "
      },
      "purchase()": {
        "notice": "purchase KP4R at the current unit price "
      },
      "remaining()": {
        "notice": "The amount of KP4R remaining "
      }
    }
  }
}